{
  "contractName": "Citizen",
  "abi": [
    {
      "constant": true,
      "inputs": [
        {
          "internalType": "uint256",
          "name": "",
          "type": "uint256"
        }
      ],
      "name": "citizens",
      "outputs": [
        {
          "internalType": "uint256",
          "name": "citizenId",
          "type": "uint256"
        },
        {
          "internalType": "string",
          "name": "FirstName",
          "type": "string"
        },
        {
          "internalType": "string",
          "name": "LastName",
          "type": "string"
        },
        {
          "internalType": "string",
          "name": "Country",
          "type": "string"
        },
        {
          "internalType": "string",
          "name": "Province",
          "type": "string"
        },
        {
          "internalType": "uint256",
          "name": "age",
          "type": "uint256"
        },
        {
          "internalType": "string",
          "name": "gender",
          "type": "string"
        }
      ],
      "payable": false,
      "stateMutability": "view",
      "type": "function"
    },
    {
      "constant": false,
      "inputs": [
        {
          "internalType": "uint256",
          "name": "citizenId",
          "type": "uint256"
        },
        {
          "internalType": "string",
          "name": "FirstName",
          "type": "string"
        },
        {
          "internalType": "string",
          "name": "LastName",
          "type": "string"
        },
        {
          "internalType": "string",
          "name": "Country",
          "type": "string"
        },
        {
          "internalType": "string",
          "name": "Province",
          "type": "string"
        },
        {
          "internalType": "uint256",
          "name": "age",
          "type": "uint256"
        },
        {
          "internalType": "string",
          "name": "gender",
          "type": "string"
        }
      ],
      "name": "createCitizen",
      "outputs": [],
      "payable": false,
      "stateMutability": "nonpayable",
      "type": "function"
    },
    {
      "constant": true,
      "inputs": [
        {
          "internalType": "uint256",
          "name": "citizenId",
          "type": "uint256"
        }
      ],
      "name": "readCitizen",
      "outputs": [
        {
          "internalType": "string",
          "name": "FirstName",
          "type": "string"
        },
        {
          "internalType": "string",
          "name": "LastName",
          "type": "string"
        },
        {
          "internalType": "string",
          "name": "Country",
          "type": "string"
        },
        {
          "internalType": "string",
          "name": "Province",
          "type": "string"
        },
        {
          "internalType": "uint256",
          "name": "age",
          "type": "uint256"
        },
        {
          "internalType": "string",
          "name": "gender",
          "type": "string"
        }
      ],
      "payable": false,
      "stateMutability": "view",
      "type": "function"
    },
    {
      "constant": false,
      "inputs": [
        {
          "internalType": "uint256",
          "name": "citizenId",
          "type": "uint256"
        }
      ],
      "name": "deleteCitizen",
      "outputs": [],
      "payable": false,
      "stateMutability": "nonpayable",
      "type": "function"
    }
  ],
  "bytecode": "0x608060405234801561001057600080fd5b50611232806100206000396000f3fe608060405234801561001057600080fd5b506004361061004c5760003560e01c806309a34f0014610051578063603d0930146102b65780639bdd6ab314610514578063dd55f11b1461083f575b600080fd5b61007d6004803603602081101561006757600080fd5b810190808035906020019092919050505061086d565b60405180888152602001806020018060200180602001806020018781526020018060200186810386528c818151815260200191508051906020019080838360005b838110156100d95780820151818401526020810190506100be565b50505050905090810190601f1680156101065780820380516001836020036101000a031916815260200191505b5086810385528b818151815260200191508051906020019080838360005b8381101561013f578082015181840152602081019050610124565b50505050905090810190601f16801561016c5780820380516001836020036101000a031916815260200191505b5086810384528a818151815260200191508051906020019080838360005b838110156101a557808201518184015260208101905061018a565b50505050905090810190601f1680156101d25780820380516001836020036101000a031916815260200191505b50868103835289818151815260200191508051906020019080838360005b8381101561020b5780820151818401526020810190506101f0565b50505050905090810190601f1680156102385780820380516001836020036101000a031916815260200191505b50868103825287818151815260200191508051906020019080838360005b83811015610271578082015181840152602081019050610256565b50505050905090810190601f16801561029e5780820380516001836020036101000a031916815260200191505b509c5050505050505050505050505060405180910390f35b6102e2600480360360208110156102cc57600080fd5b8101908080359060200190929190505050610ba7565b60405180806020018060200180602001806020018781526020018060200186810386528c818151815260200191508051906020019080838360005b8381101561033857808201518184015260208101905061031d565b50505050905090810190601f1680156103655780820380516001836020036101000a031916815260200191505b5086810385528b818151815260200191508051906020019080838360005b8381101561039e578082015181840152602081019050610383565b50505050905090810190601f1680156103cb5780820380516001836020036101000a031916815260200191505b5086810384528a818151815260200191508051906020019080838360005b838110156104045780820151818401526020810190506103e9565b50505050905090810190601f1680156104315780820380516001836020036101000a031916815260200191505b50868103835289818151815260200191508051906020019080838360005b8381101561046a57808201518184015260208101905061044f565b50505050905090810190601f1680156104975780820380516001836020036101000a031916815260200191505b50868103825287818151815260200191508051906020019080838360005b838110156104d05780820151818401526020810190506104b5565b50505050905090810190601f1680156104fd5780820380516001836020036101000a031916815260200191505b509b50505050505050505050505060405180910390f35b61083d600480360360e081101561052a57600080fd5b81019080803590602001909291908035906020019064010000000081111561055157600080fd5b82018360208201111561056357600080fd5b8035906020019184600183028401116401000000008311171561058557600080fd5b91908080601f016020809104026020016040519081016040528093929190818152602001838380828437600081840152601f19601f820116905080830192505050505050509192919290803590602001906401000000008111156105e857600080fd5b8201836020820111156105fa57600080fd5b8035906020019184600183028401116401000000008311171561061c57600080fd5b91908080601f016020809104026020016040519081016040528093929190818152602001838380828437600081840152601f19601f8201169050808301925050505050505091929192908035906020019064010000000081111561067f57600080fd5b82018360208201111561069157600080fd5b803590602001918460018302840111640100000000831117156106b357600080fd5b91908080601f016020809104026020016040519081016040528093929190818152602001838380828437600081840152601f19601f8201169050808301925050505050505091929192908035906020019064010000000081111561071657600080fd5b82018360208201111561072857600080fd5b8035906020019184600183028401116401000000008311171561074a57600080fd5b91908080601f016020809104026020016040519081016040528093929190818152602001838380828437600081840152601f19601f82011690508083019250505050505050919291929080359060200190929190803590602001906401000000008111156107b757600080fd5b8201836020820111156107c957600080fd5b803590602001918460018302840111640100000000831117156107eb57600080fd5b91908080601f016020809104026020016040519081016040528093929190818152602001838380828437600081840152601f19601f820116905080830192505050505050509192919290505050610f59565b005b61086b6004803603602081101561085557600080fd5b810190808035906020019092919050505061105b565b005b6000602052806000526040600020600091509050806000015490806001018054600181600116156101000203166002900480601f01602080910402602001604051908101604052809291908181526020018280546001816001161561010002031660029004801561091f5780601f106108f45761010080835404028352916020019161091f565b820191906000526020600020905b81548152906001019060200180831161090257829003601f168201915b505050505090806002018054600181600116156101000203166002900480601f0160208091040260200160405190810160405280929190818152602001828054600181600116156101000203166002900480156109bd5780601f10610992576101008083540402835291602001916109bd565b820191906000526020600020905b8154815290600101906020018083116109a057829003601f168201915b505050505090806003018054600181600116156101000203166002900480601f016020809104026020016040519081016040528092919081815260200182805460018160011615610100020316600290048015610a5b5780601f10610a3057610100808354040283529160200191610a5b565b820191906000526020600020905b815481529060010190602001808311610a3e57829003601f168201915b505050505090806004018054600181600116156101000203166002900480601f016020809104026020016040519081016040528092919081815260200182805460018160011615610100020316600290048015610af95780601f10610ace57610100808354040283529160200191610af9565b820191906000526020600020905b815481529060010190602001808311610adc57829003601f168201915b505050505090806005015490806006018054600181600116156101000203166002900480601f016020809104026020016040519081016040528092919081815260200182805460018160011615610100020316600290048015610b9d5780601f10610b7257610100808354040283529160200191610b9d565b820191906000526020600020905b815481529060010190602001808311610b8057829003601f168201915b5050505050905087565b60608060608060006060610bb96110d3565b6000808981526020019081526020016000206040518060e001604052908160008201548152602001600182018054600181600116156101000203166002900480601f016020809104026020016040519081016040528092919081815260200182805460018160011615610100020316600290048015610c795780601f10610c4e57610100808354040283529160200191610c79565b820191906000526020600020905b815481529060010190602001808311610c5c57829003601f168201915b50505050508152602001600282018054600181600116156101000203166002900480601f016020809104026020016040519081016040528092919081815260200182805460018160011615610100020316600290048015610d1b5780601f10610cf057610100808354040283529160200191610d1b565b820191906000526020600020905b815481529060010190602001808311610cfe57829003601f168201915b50505050508152602001600382018054600181600116156101000203166002900480601f016020809104026020016040519081016040528092919081815260200182805460018160011615610100020316600290048015610dbd5780601f10610d9257610100808354040283529160200191610dbd565b820191906000526020600020905b815481529060010190602001808311610da057829003601f168201915b50505050508152602001600482018054600181600116156101000203166002900480601f016020809104026020016040519081016040528092919081815260200182805460018160011615610100020316600290048015610e5f5780601f10610e3457610100808354040283529160200191610e5f565b820191906000526020600020905b815481529060010190602001808311610e4257829003601f168201915b5050505050815260200160058201548152602001600682018054600181600116156101000203166002900480601f016020809104026020016040519081016040528092919081815260200182805460018160011615610100020316600290048015610f0b5780601f10610ee057610100808354040283529160200191610f0b565b820191906000526020600020905b815481529060010190602001808311610eee57829003601f168201915b505050505081525050905080602001518160400151826060015183608001518460a001518560c001518595508494508393508292508090509650965096509650965096505091939550919395565b610f616110d3565b6040518060e00160405280898152602001888152602001878152602001868152602001858152602001848152602001838152509050806000808a8152602001908152602001600020600082015181600001556020820151816001019080519060200190610fcf929190611110565b506040820151816002019080519060200190610fec929190611110565b506060820151816003019080519060200190611009929190611110565b506080820151816004019080519060200190611026929190611110565b5060a0820151816005015560c082015181600601908051906020019061104d929190611110565b509050505050505050505050565b6000808281526020019081526020016000206000808201600090556001820160006110869190611190565b6002820160006110969190611190565b6003820160006110a69190611190565b6004820160006110b69190611190565b60058201600090556006820160006110ce9190611190565b505050565b6040518060e00160405280600081526020016060815260200160608152602001606081526020016060815260200160008152602001606081525090565b828054600181600116156101000203166002900490600052602060002090601f016020900481019282601f1061115157805160ff191683800117855561117f565b8280016001018555821561117f579182015b8281111561117e578251825591602001919060010190611163565b5b50905061118c91906111d8565b5090565b50805460018160011615610100020316600290046000825580601f106111b657506111d5565b601f0160209004906000526020600020908101906111d491906111d8565b5b50565b6111fa91905b808211156111f65760008160009055506001016111de565b5090565b9056fea265627a7a72315820b7d055b988da4b58ca42a69b5e73e4d52c3e3e6cceecc2a0165baf1bd21f73ab64736f6c63430005100032",
  "source": "// SPDX-License-Identifier: MIT\npragma solidity >=0.5.16 <0.9.0;\n\n/// @title for save Citizens of a country\n/// @notice You can use this contract for only the most simple CRUD functions\n/// @dev All function calls are currently implemented without side effects\ncontract Citizen{\n    \n    // _ownerCitizen address of the owner.\n    // address public _ownerCitizen;\n\n    // Declare a struct\n    // Identity contains informations about the identity of the citizen.\n    struct Identity{\n        uint256 citizenId;\n        string FirstName;\n        string LastName;\n        string Country;\n        string Province;\n        uint256 age;\n        string gender;\n    }\n    \n    // Mapping\n    mapping(uint256 => Identity) public citizens;\n    \n    //Modifiers\n    // A modifier for checking if the `msg.sender` is the owner.\n    // modifier onlyOwner {\n    //     require(msg.sender == _ownerCitizen, \"Citizen: Only owner can perform this action\");\n    //     _;\n    // }\n\n    //Functions\n\n    // createCitizen() sets a new citizen.\n    // createCitizen() uses the struct Identity and fills the Array citizens.\n    function createCitizen(uint256 citizenId, string memory FirstName, string memory LastName, string memory Country, string memory Province, uint256 age, string memory gender) public {\n        Identity memory newCitizen = Identity(citizenId, FirstName, LastName, Country, Province, age, gender);\n        citizens[citizenId] = newCitizen;\n    }\n    \n    //readCitizen() return information about the person who is registered\n    function readCitizen(uint256 citizenId) public view returns( string memory FirstName, string memory LastName, string memory Country, string memory Province, uint256 age, string memory gender){\n        Identity memory i = citizens[citizenId];\n        return(i.FirstName, i.LastName, i.Country, i.Province, i.age, i.gender);\n    }\n    \n    //delete unnecessary saved user \n    function deleteCitizen(uint256 citizenId) public {\n        delete(citizens[citizenId]);\n    }\n}",
  "sourcePath": "/home/alina_zain/blockchain-developer-bootcamp-final-project-1/contracts/Citizen.sol",
  "compiler": {
    "name": "solc",
    "version": "0.5.16+commit.9c3226ce.Emscripten.clang"
  },
  "schemaVersion": "3.4.3",
  "updatedAt": "2022-01-15T11:58:59.602Z",
  "networkType": "ethereum",
  "devdoc": {
    "details": "All function calls are currently implemented without side effects",
    "methods": {},
    "title": "for save Citizens of a country"
  },
  "userdoc": {
    "methods": {},
    "notice": "You can use this contract for only the most simple CRUD functions"
  }
}